{
  "address": "0x35b5c6C63F0a23649f7E0859568DA93eEa0e1ae8",
  "abi": [
    {
      "inputs": [],
      "stateMutability": "nonpayable",
      "type": "constructor"
    },
    {
      "inputs": [
        {
          "internalType": "address",
          "name": "sender",
          "type": "address"
        },
        {
          "internalType": "uint256",
          "name": "tokenId",
          "type": "uint256"
        },
        {
          "internalType": "address",
          "name": "owner",
          "type": "address"
        }
      ],
      "name": "ERC721IncorrectOwner",
      "type": "error"
    },
    {
      "inputs": [
        {
          "internalType": "address",
          "name": "operator",
          "type": "address"
        },
        {
          "internalType": "uint256",
          "name": "tokenId",
          "type": "uint256"
        }
      ],
      "name": "ERC721InsufficientApproval",
      "type": "error"
    },
    {
      "inputs": [
        {
          "internalType": "address",
          "name": "approver",
          "type": "address"
        }
      ],
      "name": "ERC721InvalidApprover",
      "type": "error"
    },
    {
      "inputs": [
        {
          "internalType": "address",
          "name": "operator",
          "type": "address"
        }
      ],
      "name": "ERC721InvalidOperator",
      "type": "error"
    },
    {
      "inputs": [
        {
          "internalType": "address",
          "name": "owner",
          "type": "address"
        }
      ],
      "name": "ERC721InvalidOwner",
      "type": "error"
    },
    {
      "inputs": [
        {
          "internalType": "address",
          "name": "receiver",
          "type": "address"
        }
      ],
      "name": "ERC721InvalidReceiver",
      "type": "error"
    },
    {
      "inputs": [
        {
          "internalType": "address",
          "name": "sender",
          "type": "address"
        }
      ],
      "name": "ERC721InvalidSender",
      "type": "error"
    },
    {
      "inputs": [
        {
          "internalType": "uint256",
          "name": "tokenId",
          "type": "uint256"
        }
      ],
      "name": "ERC721NonexistentToken",
      "type": "error"
    },
    {
      "anonymous": false,
      "inputs": [
        {
          "indexed": true,
          "internalType": "address",
          "name": "owner",
          "type": "address"
        },
        {
          "indexed": true,
          "internalType": "address",
          "name": "approved",
          "type": "address"
        },
        {
          "indexed": true,
          "internalType": "uint256",
          "name": "tokenId",
          "type": "uint256"
        }
      ],
      "name": "Approval",
      "type": "event"
    },
    {
      "anonymous": false,
      "inputs": [
        {
          "indexed": true,
          "internalType": "address",
          "name": "owner",
          "type": "address"
        },
        {
          "indexed": true,
          "internalType": "address",
          "name": "operator",
          "type": "address"
        },
        {
          "indexed": false,
          "internalType": "bool",
          "name": "approved",
          "type": "bool"
        }
      ],
      "name": "ApprovalForAll",
      "type": "event"
    },
    {
      "anonymous": false,
      "inputs": [
        {
          "indexed": false,
          "internalType": "uint256",
          "name": "_fromTokenId",
          "type": "uint256"
        },
        {
          "indexed": false,
          "internalType": "uint256",
          "name": "_toTokenId",
          "type": "uint256"
        }
      ],
      "name": "BatchMetadataUpdate",
      "type": "event"
    },
    {
      "anonymous": false,
      "inputs": [
        {
          "indexed": false,
          "internalType": "uint256",
          "name": "_tokenId",
          "type": "uint256"
        }
      ],
      "name": "MetadataUpdate",
      "type": "event"
    },
    {
      "anonymous": false,
      "inputs": [
        {
          "indexed": true,
          "internalType": "address",
          "name": "minter",
          "type": "address"
        },
        {
          "indexed": true,
          "internalType": "uint256",
          "name": "tokenId",
          "type": "uint256"
        },
        {
          "indexed": false,
          "internalType": "string",
          "name": "tokenUri",
          "type": "string"
        }
      ],
      "name": "NftMinted",
      "type": "event"
    },
    {
      "anonymous": false,
      "inputs": [
        {
          "indexed": true,
          "internalType": "address",
          "name": "from",
          "type": "address"
        },
        {
          "indexed": true,
          "internalType": "address",
          "name": "to",
          "type": "address"
        },
        {
          "indexed": true,
          "internalType": "uint256",
          "name": "tokenId",
          "type": "uint256"
        }
      ],
      "name": "Transfer",
      "type": "event"
    },
    {
      "inputs": [
        {
          "internalType": "address",
          "name": "to",
          "type": "address"
        },
        {
          "internalType": "uint256",
          "name": "tokenId",
          "type": "uint256"
        }
      ],
      "name": "approve",
      "outputs": [],
      "stateMutability": "nonpayable",
      "type": "function"
    },
    {
      "inputs": [
        {
          "internalType": "address",
          "name": "owner",
          "type": "address"
        }
      ],
      "name": "balanceOf",
      "outputs": [
        {
          "internalType": "uint256",
          "name": "",
          "type": "uint256"
        }
      ],
      "stateMutability": "view",
      "type": "function"
    },
    {
      "inputs": [
        {
          "internalType": "uint256",
          "name": "tokenId",
          "type": "uint256"
        }
      ],
      "name": "getApproved",
      "outputs": [
        {
          "internalType": "address",
          "name": "",
          "type": "address"
        }
      ],
      "stateMutability": "view",
      "type": "function"
    },
    {
      "inputs": [],
      "name": "getSupply",
      "outputs": [
        {
          "internalType": "uint256",
          "name": "",
          "type": "uint256"
        }
      ],
      "stateMutability": "view",
      "type": "function"
    },
    {
      "inputs": [],
      "name": "getTokenCounter",
      "outputs": [
        {
          "internalType": "uint256",
          "name": "",
          "type": "uint256"
        }
      ],
      "stateMutability": "view",
      "type": "function"
    },
    {
      "inputs": [
        {
          "internalType": "uint256[]",
          "name": "tokenIds",
          "type": "uint256[]"
        }
      ],
      "name": "getTokenOwners",
      "outputs": [
        {
          "internalType": "address[]",
          "name": "",
          "type": "address[]"
        }
      ],
      "stateMutability": "view",
      "type": "function"
    },
    {
      "inputs": [
        {
          "internalType": "address",
          "name": "owner",
          "type": "address"
        },
        {
          "internalType": "address",
          "name": "operator",
          "type": "address"
        }
      ],
      "name": "isApprovedForAll",
      "outputs": [
        {
          "internalType": "bool",
          "name": "",
          "type": "bool"
        }
      ],
      "stateMutability": "view",
      "type": "function"
    },
    {
      "inputs": [],
      "name": "mintNft",
      "outputs": [],
      "stateMutability": "nonpayable",
      "type": "function"
    },
    {
      "inputs": [],
      "name": "name",
      "outputs": [
        {
          "internalType": "string",
          "name": "",
          "type": "string"
        }
      ],
      "stateMutability": "view",
      "type": "function"
    },
    {
      "inputs": [
        {
          "internalType": "uint256",
          "name": "tokenId",
          "type": "uint256"
        }
      ],
      "name": "ownerOf",
      "outputs": [
        {
          "internalType": "address",
          "name": "",
          "type": "address"
        }
      ],
      "stateMutability": "view",
      "type": "function"
    },
    {
      "inputs": [
        {
          "internalType": "address",
          "name": "from",
          "type": "address"
        },
        {
          "internalType": "address",
          "name": "to",
          "type": "address"
        },
        {
          "internalType": "uint256",
          "name": "tokenId",
          "type": "uint256"
        }
      ],
      "name": "safeTransferFrom",
      "outputs": [],
      "stateMutability": "nonpayable",
      "type": "function"
    },
    {
      "inputs": [
        {
          "internalType": "address",
          "name": "from",
          "type": "address"
        },
        {
          "internalType": "address",
          "name": "to",
          "type": "address"
        },
        {
          "internalType": "uint256",
          "name": "tokenId",
          "type": "uint256"
        },
        {
          "internalType": "bytes",
          "name": "data",
          "type": "bytes"
        }
      ],
      "name": "safeTransferFrom",
      "outputs": [],
      "stateMutability": "nonpayable",
      "type": "function"
    },
    {
      "inputs": [
        {
          "internalType": "address",
          "name": "operator",
          "type": "address"
        },
        {
          "internalType": "bool",
          "name": "approved",
          "type": "bool"
        }
      ],
      "name": "setApprovalForAll",
      "outputs": [],
      "stateMutability": "nonpayable",
      "type": "function"
    },
    {
      "inputs": [
        {
          "internalType": "bytes4",
          "name": "interfaceId",
          "type": "bytes4"
        }
      ],
      "name": "supportsInterface",
      "outputs": [
        {
          "internalType": "bool",
          "name": "",
          "type": "bool"
        }
      ],
      "stateMutability": "view",
      "type": "function"
    },
    {
      "inputs": [],
      "name": "symbol",
      "outputs": [
        {
          "internalType": "string",
          "name": "",
          "type": "string"
        }
      ],
      "stateMutability": "view",
      "type": "function"
    },
    {
      "inputs": [
        {
          "internalType": "uint256",
          "name": "tokenId",
          "type": "uint256"
        }
      ],
      "name": "tokenURI",
      "outputs": [
        {
          "internalType": "string",
          "name": "",
          "type": "string"
        }
      ],
      "stateMutability": "view",
      "type": "function"
    },
    {
      "inputs": [
        {
          "internalType": "address",
          "name": "from",
          "type": "address"
        },
        {
          "internalType": "address",
          "name": "to",
          "type": "address"
        },
        {
          "internalType": "uint256",
          "name": "tokenId",
          "type": "uint256"
        }
      ],
      "name": "transferFrom",
      "outputs": [],
      "stateMutability": "nonpayable",
      "type": "function"
    }
  ],
  "transactionHash": "0x3cd571c78876d831501e35e9ae17bd4cf67fe6df7727999bdc14bdedb20c8192",
  "args": [],
  "numDeployments": 1,
  "solcInputHash": "4bf0c4ec4a8dd5b64793652861969ba8",
  "bytecode": "0x608060405260196008553480156200001657600080fd5b5060405180604001604052806006815260200165135d5d185b9d60d21b8152506040518060400160405280600381526020016213555560ea1b815250816000908162000063919062000125565b50600162000072828262000125565b5050600160075550620001f1565b634e487b7160e01b600052604160045260246000fd5b600181811c90821680620000ab57607f821691505b602082108103620000cc57634e487b7160e01b600052602260045260246000fd5b50919050565b601f8211156200012057600081815260208120601f850160051c81016020861015620000fb5750805b601f850160051c820191505b818110156200011c5782815560010162000107565b5050505b505050565b81516001600160401b0381111562000141576200014162000080565b620001598162000152845462000096565b84620000d2565b602080601f831160018114620001915760008415620001785750858301515b600019600386901b1c1916600185901b1785556200011c565b600085815260208120601f198616915b82811015620001c257888601518255948401946001909101908401620001a1565b5085821015620001e15787850151600019600388901b60f8161c191681555b5050505050600190811b01905550565b61167680620002016000396000f3fe608060405234801561001057600080fd5b506004361061010b5760003560e01c80636e02007d116100a2578063a22cb46511610071578063a22cb4651461021b578063b88d4fde1461022e578063c2229fea14610241578063c87b56dd14610249578063e985e9c51461025c57600080fd5b80636e02007d146101d857806370a08231146101e057806395d89b41146101f3578063975d89cf146101fb57600080fd5b806323b872dd116100de57806323b872dd1461018d57806342842e0e146101a05780636352211e146101b35780636c9c2faf146101c657600080fd5b806301ffc9a71461011057806306fdde0314610138578063081812fc1461014d578063095ea7b314610178575b600080fd5b61012361011e366004610faf565b61026f565b60405190151581526020015b60405180910390f35b61014061029a565b60405161012f919061101c565b61016061015b36600461102f565b61032c565b6040516001600160a01b03909116815260200161012f565b61018b610186366004611064565b610355565b005b61018b61019b36600461108e565b610364565b61018b6101ae36600461108e565b6103f4565b6101606101c136600461102f565b610414565b6008545b60405190815260200161012f565b6007546101ca565b6101ca6101ee3660046110ca565b61041f565b610140610467565b61020e61020936600461112c565b610476565b60405161012f91906111d2565b61018b61022936600461121f565b610547565b61018b61023c36600461125b565b610552565b61018b610569565b61014061025736600461102f565b610667565b61012361026a36600461131b565b61076b565b60006001600160e01b03198216632483248360e11b1480610294575061029482610799565b92915050565b6060600080546102a99061134e565b80601f01602080910402602001604051908101604052809291908181526020018280546102d59061134e565b80156103225780601f106102f757610100808354040283529160200191610322565b820191906000526020600020905b81548152906001019060200180831161030557829003601f168201915b5050505050905090565b6000610337826107e9565b506000828152600460205260409020546001600160a01b0316610294565b610360828233610822565b5050565b6001600160a01b03821661039357604051633250574960e11b8152600060048201526024015b60405180910390fd5b60006103a083833361082f565b9050836001600160a01b0316816001600160a01b0316146103ee576040516364283d7b60e01b81526001600160a01b038086166004830152602482018490528216604482015260640161038a565b50505050565b61040f83838360405180602001604052806000815250610552565b505050565b6000610294826107e9565b60006001600160a01b03821661044b576040516322718ad960e21b81526000600482015260240161038a565b506001600160a01b031660009081526003602052604090205490565b6060600180546102a99061134e565b60606000825167ffffffffffffffff811115610494576104946110e5565b6040519080825280602002602001820160405280156104bd578160200160208202803683370190505b50905060005b8351811015610540576105048482815181106104e1576104e1611388565b60200260200101516000908152600260205260409020546001600160a01b031690565b82828151811061051657610516611388565b6001600160a01b039092166020928302919091019091015280610538816113b4565b9150506104c3565b5092915050565b610360338383610928565b61055d848484610364565b6103ee848484846109c7565b6008546105779060016113cd565b600754106105b15760405162461bcd60e51b815260206004820152600760248201526614dbdb1913dd5d60ca1b604482015260640161038a565b6007546105bf8160016113cd565b6007556105cc3382610af0565b6105fd816105d983610b0a565b6040516020016105e991906113e0565b604051602081830303815290604052610b9d565b80337f8e503b21c99b65aca8c7496e1574773871f0a73bf9262e58fb99528b46fd776a610628610bed565b61063185610b0a565b604051602001610642929190611409565b60408051601f198184030181529082905261065c9161101c565b60405180910390a350565b6060610672826107e9565b506000828152600660205260408120805461068c9061134e565b80601f01602080910402602001604051908101604052809291908181526020018280546106b89061134e565b80156107055780601f106106da57610100808354040283529160200191610705565b820191906000526020600020905b8154815290600101906020018083116106e857829003601f168201915b505050505090506000610716610bed565b90508051600003610728575092915050565b81511561075a578082604051602001610742929190611448565b60405160208183030381529060405292505050919050565b61076384610c0d565b949350505050565b6001600160a01b03918216600090815260056020908152604080832093909416825291909152205460ff1690565b60006001600160e01b031982166380ac58cd60e01b14806107ca57506001600160e01b03198216635b5e139f60e01b145b8061029457506301ffc9a760e01b6001600160e01b0319831614610294565b6000818152600260205260408120546001600160a01b03168061029457604051637e27328960e01b81526004810184905260240161038a565b61040f8383836001610c75565b6000828152600260205260408120546001600160a01b039081169083161561085c5761085c818486610d7b565b6001600160a01b0381161561089a57610879600085600080610c75565b6001600160a01b038116600090815260036020526040902080546000190190555b6001600160a01b038516156108c9576001600160a01b0385166000908152600360205260409020805460010190555b60008481526002602052604080822080546001600160a01b0319166001600160a01b0389811691821790925591518793918516917fddf252ad1be2c89b69c2b068fc378daa952ba7f163c4a11628f55a4df523b3ef91a4949350505050565b6001600160a01b03821661095a57604051630b61174360e31b81526001600160a01b038316600482015260240161038a565b6001600160a01b03838116600081815260056020908152604080832094871680845294825291829020805460ff191686151590811790915591519182527f17307eab39ab6107e8899845ad3d59bd9653f200f220920489ca2b5937696c31910160405180910390a3505050565b6001600160a01b0383163b156103ee57604051630a85bd0160e11b81526001600160a01b0384169063150b7a0290610a09903390889087908790600401611477565b6020604051808303816000875af1925050508015610a44575060408051601f3d908101601f19168201909252610a41918101906114b4565b60015b610aad573d808015610a72576040519150601f19603f3d011682016040523d82523d6000602084013e610a77565b606091505b508051600003610aa557604051633250574960e11b81526001600160a01b038516600482015260240161038a565b805181602001fd5b6001600160e01b03198116630a85bd0160e11b14610ae957604051633250574960e11b81526001600160a01b038516600482015260240161038a565b5050505050565b610360828260405180602001604052806000815250610ddf565b60606000610b1783610df6565b600101905060008167ffffffffffffffff811115610b3757610b376110e5565b6040519080825280601f01601f191660200182016040528015610b61576020820181803683370190505b5090508181016020015b600019016f181899199a1a9b1b9c1cb0b131b232b360811b600a86061a8153600a8504945084610b6b57509392505050565b6000828152600660205260409020610bb5828261151f565b506040518281527ff8e1a15aba9398e019f0b49df1a4fde98ee17ae345cb5f6b5e2c27f5033e8ce79060200160405180910390a15050565b60606040518060a00160405280606181526020016115e060619139905090565b6060610c18826107e9565b506000610c23610bed565b90506000815111610c435760405180602001604052806000815250610c6e565b80610c4d84610b0a565b604051602001610c5e929190611448565b6040516020818303038152906040525b9392505050565b8080610c8957506001600160a01b03821615155b15610d4b576000610c99846107e9565b90506001600160a01b03831615801590610cc55750826001600160a01b0316816001600160a01b031614155b8015610cd85750610cd6818461076b565b155b15610d015760405163a9fbf51f60e01b81526001600160a01b038416600482015260240161038a565b8115610d495783856001600160a01b0316826001600160a01b03167f8c5be1e5ebec7d5bd14f71427d1e84f3dd0314c0f7b2291e5b200ac8c7c3b92560405160405180910390a45b505b5050600090815260046020526040902080546001600160a01b0319166001600160a01b0392909216919091179055565b610d86838383610ece565b61040f576001600160a01b038316610db457604051637e27328960e01b81526004810182905260240161038a565b60405163177e802f60e01b81526001600160a01b03831660048201526024810182905260440161038a565b610de98383610f31565b61040f60008484846109c7565b60008072184f03e93ff9f4daa797ed6e38ed64bf6a1f0160401b8310610e355772184f03e93ff9f4daa797ed6e38ed64bf6a1f0160401b830492506040015b6d04ee2d6d415b85acef81000000008310610e61576d04ee2d6d415b85acef8100000000830492506020015b662386f26fc100008310610e7f57662386f26fc10000830492506010015b6305f5e1008310610e97576305f5e100830492506008015b6127108310610eab57612710830492506004015b60648310610ebd576064830492506002015b600a83106102945760010192915050565b60006001600160a01b038316158015906107635750826001600160a01b0316846001600160a01b03161480610f085750610f08848461076b565b806107635750506000908152600460205260409020546001600160a01b03908116911614919050565b6001600160a01b038216610f5b57604051633250574960e11b81526000600482015260240161038a565b6000610f698383600061082f565b90506001600160a01b0381161561040f576040516339e3563760e11b81526000600482015260240161038a565b6001600160e01b031981168114610fac57600080fd5b50565b600060208284031215610fc157600080fd5b8135610c6e81610f96565b60005b83811015610fe7578181015183820152602001610fcf565b50506000910152565b60008151808452611008816020860160208601610fcc565b601f01601f19169290920160200192915050565b602081526000610c6e6020830184610ff0565b60006020828403121561104157600080fd5b5035919050565b80356001600160a01b038116811461105f57600080fd5b919050565b6000806040838503121561107757600080fd5b61108083611048565b946020939093013593505050565b6000806000606084860312156110a357600080fd5b6110ac84611048565b92506110ba60208501611048565b9150604084013590509250925092565b6000602082840312156110dc57600080fd5b610c6e82611048565b634e487b7160e01b600052604160045260246000fd5b604051601f8201601f1916810167ffffffffffffffff81118282101715611124576111246110e5565b604052919050565b6000602080838503121561113f57600080fd5b823567ffffffffffffffff8082111561115757600080fd5b818501915085601f83011261116b57600080fd5b81358181111561117d5761117d6110e5565b8060051b915061118e8483016110fb565b81815291830184019184810190888411156111a857600080fd5b938501935b838510156111c6578435825293850193908501906111ad565b98975050505050505050565b6020808252825182820181905260009190848201906040850190845b818110156112135783516001600160a01b0316835292840192918401916001016111ee565b50909695505050505050565b6000806040838503121561123257600080fd5b61123b83611048565b91506020830135801515811461125057600080fd5b809150509250929050565b6000806000806080858703121561127157600080fd5b61127a85611048565b93506020611289818701611048565b935060408601359250606086013567ffffffffffffffff808211156112ad57600080fd5b818801915088601f8301126112c157600080fd5b8135818111156112d3576112d36110e5565b6112e5601f8201601f191685016110fb565b915080825289848285010111156112fb57600080fd5b808484018584013760008482840101525080935050505092959194509250565b6000806040838503121561132e57600080fd5b61133783611048565b915061134560208401611048565b90509250929050565b600181811c9082168061136257607f821691505b60208210810361138257634e487b7160e01b600052602260045260246000fd5b50919050565b634e487b7160e01b600052603260045260246000fd5b634e487b7160e01b600052601160045260246000fd5b6000600182016113c6576113c661139e565b5060010190565b808201808211156102945761029461139e565b600082516113f2818460208701610fcc565b64173539b7b760d91b920191825250600501919050565b6000835161141b818460208801610fcc565b83519083019061142f818360208801610fcc565b64173539b7b760d91b9101908152600501949350505050565b6000835161145a818460208801610fcc565b83519083019061146e818360208801610fcc565b01949350505050565b6001600160a01b03858116825284166020820152604081018390526080606082018190526000906114aa90830184610ff0565b9695505050505050565b6000602082840312156114c657600080fd5b8151610c6e81610f96565b601f82111561040f57600081815260208120601f850160051c810160208610156114f85750805b601f850160051c820191505b8181101561151757828155600101611504565b505050505050565b815167ffffffffffffffff811115611539576115396110e5565b61154d81611547845461134e565b846114d1565b602080601f831160018114611582576000841561156a5750858301515b600019600386901b1c1916600185901b178555611517565b600085815260208120601f198616915b828110156115b157888601518255948401946001909101908401611592565b50858210156115cf5787850151600019600388901b60f8161c191681555b5050505050600190811b0190555056fe68747470733a2f2f736361726c65742d6661722d757269616c2d3435352e6d7970696e6174612e636c6f75642f697066732f516d645477546a745978464848696f384e7550366e5a504266715a3155764234366a4d73657968556e69506945652fa264697066735822122098fb365f91f628fca9628c7c6e1a649f228366e987cedbbc0476312b6f91e5e764736f6c63430008140033",
  "devdoc": {
    "errors": {
      "ERC721IncorrectOwner(address,uint256,address)": [
        {
          "details": "Indicates an error related to the ownership over a particular token. Used in transfers.",
          "params": {
            "owner": "Address of the current owner of a token.",
            "sender": "Address whose tokens are being transferred.",
            "tokenId": "Identifier number of a token."
          }
        }
      ],
      "ERC721InsufficientApproval(address,uint256)": [
        {
          "details": "Indicates a failure with the `operator`s approval. Used in transfers.",
          "params": {
            "operator": "Address that may be allowed to operate on tokens without being their owner.",
            "tokenId": "Identifier number of a token."
          }
        }
      ],
      "ERC721InvalidApprover(address)": [
        {
          "details": "Indicates a failure with the `approver` of a token to be approved. Used in approvals.",
          "params": {
            "approver": "Address initiating an approval operation."
          }
        }
      ],
      "ERC721InvalidOperator(address)": [
        {
          "details": "Indicates a failure with the `operator` to be approved. Used in approvals.",
          "params": {
            "operator": "Address that may be allowed to operate on tokens without being their owner."
          }
        }
      ],
      "ERC721InvalidOwner(address)": [
        {
          "details": "Indicates that an address can't be an owner. For example, `address(0)` is a forbidden owner in EIP-20. Used in balance queries.",
          "params": {
            "owner": "Address of the current owner of a token."
          }
        }
      ],
      "ERC721InvalidReceiver(address)": [
        {
          "details": "Indicates a failure with the token `receiver`. Used in transfers.",
          "params": {
            "receiver": "Address to which tokens are being transferred."
          }
        }
      ],
      "ERC721InvalidSender(address)": [
        {
          "details": "Indicates a failure with the token `sender`. Used in transfers.",
          "params": {
            "sender": "Address whose tokens are being transferred."
          }
        }
      ],
      "ERC721NonexistentToken(uint256)": [
        {
          "details": "Indicates a `tokenId` whose `owner` is the zero address.",
          "params": {
            "tokenId": "Identifier number of a token."
          }
        }
      ]
    },
    "events": {
      "Approval(address,address,uint256)": {
        "details": "Emitted when `owner` enables `approved` to manage the `tokenId` token."
      },
      "ApprovalForAll(address,address,bool)": {
        "details": "Emitted when `owner` enables or disables (`approved`) `operator` to manage all of its assets."
      },
      "BatchMetadataUpdate(uint256,uint256)": {
        "details": "This event emits when the metadata of a range of tokens is changed. So that the third-party platforms such as NFT market could timely update the images and related attributes of the NFTs."
      },
      "MetadataUpdate(uint256)": {
        "details": "This event emits when the metadata of a token is changed. So that the third-party platforms such as NFT market could timely update the images and related attributes of the NFT."
      },
      "Transfer(address,address,uint256)": {
        "details": "Emitted when `tokenId` token is transferred from `from` to `to`."
      }
    },
    "kind": "dev",
    "methods": {
      "approve(address,uint256)": {
        "details": "See {IERC721-approve}."
      },
      "balanceOf(address)": {
        "details": "See {IERC721-balanceOf}."
      },
      "getApproved(uint256)": {
        "details": "See {IERC721-getApproved}."
      },
      "isApprovedForAll(address,address)": {
        "details": "See {IERC721-isApprovedForAll}."
      },
      "name()": {
        "details": "See {IERC721Metadata-name}."
      },
      "ownerOf(uint256)": {
        "details": "See {IERC721-ownerOf}."
      },
      "safeTransferFrom(address,address,uint256)": {
        "details": "See {IERC721-safeTransferFrom}."
      },
      "safeTransferFrom(address,address,uint256,bytes)": {
        "details": "See {IERC721-safeTransferFrom}."
      },
      "setApprovalForAll(address,bool)": {
        "details": "See {IERC721-setApprovalForAll}."
      },
      "supportsInterface(bytes4)": {
        "details": "See {IERC165-supportsInterface}"
      },
      "symbol()": {
        "details": "See {IERC721Metadata-symbol}."
      },
      "tokenURI(uint256)": {
        "details": "See {IERC721Metadata-tokenURI}."
      },
      "transferFrom(address,address,uint256)": {
        "details": "See {IERC721-transferFrom}."
      }
    },
    "version": 1
  },
  "userdoc": {
    "kind": "user",
    "methods": {},
    "version": 1
  },
  "storageLayout": {
    "storage": [
      {
        "astId": 201,
        "contract": "contracts/MutantsNft.sol:MutantsNft",
        "label": "_name",
        "offset": 0,
        "slot": "0",
        "type": "t_string_storage"
      },
      {
        "astId": 203,
        "contract": "contracts/MutantsNft.sol:MutantsNft",
        "label": "_symbol",
        "offset": 0,
        "slot": "1",
        "type": "t_string_storage"
      },
      {
        "astId": 207,
        "contract": "contracts/MutantsNft.sol:MutantsNft",
        "label": "_owners",
        "offset": 0,
        "slot": "2",
        "type": "t_mapping(t_uint256,t_address)"
      },
      {
        "astId": 211,
        "contract": "contracts/MutantsNft.sol:MutantsNft",
        "label": "_balances",
        "offset": 0,
        "slot": "3",
        "type": "t_mapping(t_address,t_uint256)"
      },
      {
        "astId": 215,
        "contract": "contracts/MutantsNft.sol:MutantsNft",
        "label": "_tokenApprovals",
        "offset": 0,
        "slot": "4",
        "type": "t_mapping(t_uint256,t_address)"
      },
      {
        "astId": 221,
        "contract": "contracts/MutantsNft.sol:MutantsNft",
        "label": "_operatorApprovals",
        "offset": 0,
        "slot": "5",
        "type": "t_mapping(t_address,t_mapping(t_address,t_bool))"
      },
      {
        "astId": 1724,
        "contract": "contracts/MutantsNft.sol:MutantsNft",
        "label": "_tokenURIs",
        "offset": 0,
        "slot": "6",
        "type": "t_mapping(t_uint256,t_string_storage)"
      },
      {
        "astId": 3380,
        "contract": "contracts/MutantsNft.sol:MutantsNft",
        "label": "tokenCounter",
        "offset": 0,
        "slot": "7",
        "type": "t_uint256"
      },
      {
        "astId": 3383,
        "contract": "contracts/MutantsNft.sol:MutantsNft",
        "label": "supply",
        "offset": 0,
        "slot": "8",
        "type": "t_uint256"
      }
    ],
    "types": {
      "t_address": {
        "encoding": "inplace",
        "label": "address",
        "numberOfBytes": "20"
      },
      "t_bool": {
        "encoding": "inplace",
        "label": "bool",
        "numberOfBytes": "1"
      },
      "t_mapping(t_address,t_bool)": {
        "encoding": "mapping",
        "key": "t_address",
        "label": "mapping(address => bool)",
        "numberOfBytes": "32",
        "value": "t_bool"
      },
      "t_mapping(t_address,t_mapping(t_address,t_bool))": {
        "encoding": "mapping",
        "key": "t_address",
        "label": "mapping(address => mapping(address => bool))",
        "numberOfBytes": "32",
        "value": "t_mapping(t_address,t_bool)"
      },
      "t_mapping(t_address,t_uint256)": {
        "encoding": "mapping",
        "key": "t_address",
        "label": "mapping(address => uint256)",
        "numberOfBytes": "32",
        "value": "t_uint256"
      },
      "t_mapping(t_uint256,t_address)": {
        "encoding": "mapping",
        "key": "t_uint256",
        "label": "mapping(uint256 => address)",
        "numberOfBytes": "32",
        "value": "t_address"
      },
      "t_mapping(t_uint256,t_string_storage)": {
        "encoding": "mapping",
        "key": "t_uint256",
        "label": "mapping(uint256 => string)",
        "numberOfBytes": "32",
        "value": "t_string_storage"
      },
      "t_string_storage": {
        "encoding": "bytes",
        "label": "string",
        "numberOfBytes": "32"
      },
      "t_uint256": {
        "encoding": "inplace",
        "label": "uint256",
        "numberOfBytes": "32"
      }
    }
  }
}